{
  "_format": "hh-sol-artifact-1",
  "contractName": "AdaptiveVault",
  "sourceName": "contracts/AdaptiveVault.sol",
  "abi": [
    {
      "inputs": [
        {
          "internalType": "address",
          "name": "assetAddress",
          "type": "address"
        },
        {
          "internalType": "address",
          "name": "initialPolicyUpdater",
          "type": "address"
        },
        {
          "internalType": "address",
          "name": "gatewayAddress",
          "type": "address"
        }
      ],
      "stateMutability": "nonpayable",
      "type": "constructor"
    },
    {
      "inputs": [
        {
          "internalType": "uint256",
          "name": "observedHealthFactor",
          "type": "uint256"
        },
        {
          "internalType": "uint256",
          "name": "minHealthFactor",
          "type": "uint256"
        }
      ],
      "name": "HealthFactorTooLow",
      "type": "error"
    },
    {
      "inputs": [],
      "name": "InsufficientShares",
      "type": "error"
    },
    {
      "inputs": [],
      "name": "InvalidInput",
      "type": "error"
    },
    {
      "inputs": [
        {
          "internalType": "uint64",
          "name": "oraclePrice",
          "type": "uint64"
        }
      ],
      "name": "OracleOutOfBounds",
      "type": "error"
    },
    {
      "inputs": [
        {
          "internalType": "uint64",
          "name": "oracleTimestamp",
          "type": "uint64"
        },
        {
          "internalType": "uint64",
          "name": "currentTimestamp",
          "type": "uint64"
        }
      ],
      "name": "OracleStale",
      "type": "error"
    },
    {
      "inputs": [
        {
          "internalType": "uint256",
          "name": "attemptedBps",
          "type": "uint256"
        },
        {
          "internalType": "uint256",
          "name": "maxBps",
          "type": "uint256"
        }
      ],
      "name": "RebalanceTooLarge",
      "type": "error"
    },
    {
      "inputs": [
        {
          "internalType": "uint256",
          "name": "attemptedBps",
          "type": "uint256"
        },
        {
          "internalType": "uint256",
          "name": "maxBps",
          "type": "uint256"
        }
      ],
      "name": "SlippageTooHigh",
      "type": "error"
    },
    {
      "inputs": [],
      "name": "Unauthorized",
      "type": "error"
    },
    {
      "anonymous": false,
      "inputs": [
        {
          "indexed": true,
          "internalType": "address",
          "name": "user",
          "type": "address"
        },
        {
          "indexed": false,
          "internalType": "uint256",
          "name": "assets",
          "type": "uint256"
        },
        {
          "indexed": false,
          "internalType": "uint256",
          "name": "sharesMinted",
          "type": "uint256"
        }
      ],
      "name": "Deposited",
      "type": "event"
    },
    {
      "anonymous": false,
      "inputs": [
        {
          "indexed": false,
          "internalType": "uint64",
          "name": "minPrice",
          "type": "uint64"
        },
        {
          "indexed": false,
          "internalType": "uint64",
          "name": "maxPrice",
          "type": "uint64"
        }
      ],
      "name": "OracleBoundsUpdated",
      "type": "event"
    },
    {
      "anonymous": false,
      "inputs": [
        {
          "indexed": true,
          "internalType": "address",
          "name": "previousOwner",
          "type": "address"
        },
        {
          "indexed": true,
          "internalType": "address",
          "name": "newOwner",
          "type": "address"
        }
      ],
      "name": "OwnershipTransferred",
      "type": "event"
    },
    {
      "anonymous": false,
      "inputs": [
        {
          "indexed": true,
          "internalType": "address",
          "name": "previousUpdater",
          "type": "address"
        },
        {
          "indexed": true,
          "internalType": "address",
          "name": "newUpdater",
          "type": "address"
        }
      ],
      "name": "PolicyUpdaterChanged",
      "type": "event"
    },
    {
      "anonymous": false,
      "inputs": [
        {
          "indexed": false,
          "internalType": "uint16",
          "name": "previousPoolABps",
          "type": "uint16"
        },
        {
          "indexed": false,
          "internalType": "uint16",
          "name": "previousPoolBBps",
          "type": "uint16"
        },
        {
          "indexed": false,
          "internalType": "uint16",
          "name": "newPoolABps",
          "type": "uint16"
        },
        {
          "indexed": false,
          "internalType": "uint16",
          "name": "newPoolBBps",
          "type": "uint16"
        },
        {
          "indexed": false,
          "internalType": "uint64",
          "name": "oraclePrice",
          "type": "uint64"
        },
        {
          "indexed": false,
          "internalType": "uint16",
          "name": "slippageBps",
          "type": "uint16"
        },
        {
          "indexed": false,
          "internalType": "uint256",
          "name": "healthFactorWad",
          "type": "uint256"
        },
        {
          "indexed": false,
          "internalType": "uint64",
          "name": "oracleTimestamp",
          "type": "uint64"
        }
      ],
      "name": "Rebalanced",
      "type": "event"
    },
    {
      "anonymous": false,
      "inputs": [
        {
          "indexed": true,
          "internalType": "address",
          "name": "user",
          "type": "address"
        },
        {
          "indexed": false,
          "internalType": "uint256",
          "name": "sharesBurned",
          "type": "uint256"
        },
        {
          "indexed": false,
          "internalType": "uint256",
          "name": "assetsReturned",
          "type": "uint256"
        }
      ],
      "name": "Withdrawn",
      "type": "event"
    },
    {
      "inputs": [],
      "name": "MAX_ALLOCATION_DELTA_BPS",
      "outputs": [
        {
          "internalType": "uint16",
          "name": "",
          "type": "uint16"
        }
      ],
      "stateMutability": "view",
      "type": "function"
    },
    {
      "inputs": [],
      "name": "MAX_ORACLE_STALENESS_SECONDS",
      "outputs": [
        {
          "internalType": "uint64",
          "name": "",
          "type": "uint64"
        }
      ],
      "stateMutability": "view",
      "type": "function"
    },
    {
      "inputs": [],
      "name": "MAX_SLIPPAGE_BPS",
      "outputs": [
        {
          "internalType": "uint16",
          "name": "",
          "type": "uint16"
        }
      ],
      "stateMutability": "view",
      "type": "function"
    },
    {
      "inputs": [],
      "name": "MIN_HEALTH_FACTOR_WAD",
      "outputs": [
        {
          "internalType": "uint256",
          "name": "",
          "type": "uint256"
        }
      ],
      "stateMutability": "view",
      "type": "function"
    },
    {
      "inputs": [],
      "name": "allocation",
      "outputs": [
        {
          "internalType": "uint16",
          "name": "poolABps",
          "type": "uint16"
        },
        {
          "internalType": "uint16",
          "name": "poolBBps",
          "type": "uint16"
        },
        {
          "internalType": "uint64",
          "name": "lastOraclePrice",
          "type": "uint64"
        }
      ],
      "stateMutability": "view",
      "type": "function"
    },
    {
      "inputs": [],
      "name": "asset",
      "outputs": [
        {
          "internalType": "contract IERC20Like",
          "name": "",
          "type": "address"
        }
      ],
      "stateMutability": "view",
      "type": "function"
    },
    {
      "inputs": [
        {
          "internalType": "uint256",
          "name": "assets",
          "type": "uint256"
        }
      ],
      "name": "deposit",
      "outputs": [
        {
          "internalType": "uint256",
          "name": "sharesMinted",
          "type": "uint256"
        }
      ],
      "stateMutability": "nonpayable",
      "type": "function"
    },
    {
      "inputs": [],
      "name": "oracleMaxPrice",
      "outputs": [
        {
          "internalType": "uint64",
          "name": "",
          "type": "uint64"
        }
      ],
      "stateMutability": "view",
      "type": "function"
    },
    {
      "inputs": [],
      "name": "oracleMinPrice",
      "outputs": [
        {
          "internalType": "uint64",
          "name": "",
          "type": "uint64"
        }
      ],
      "stateMutability": "view",
      "type": "function"
    },
    {
      "inputs": [],
      "name": "owner",
      "outputs": [
        {
          "internalType": "address",
          "name": "",
          "type": "address"
        }
      ],
      "stateMutability": "view",
      "type": "function"
    },
    {
      "inputs": [],
      "name": "policyUpdater",
      "outputs": [
        {
          "internalType": "address",
          "name": "",
          "type": "address"
        }
      ],
      "stateMutability": "view",
      "type": "function"
    },
    {
      "inputs": [
        {
          "internalType": "int256",
          "name": "deltaPoolABps",
          "type": "int256"
        },
        {
          "internalType": "uint64",
          "name": "oraclePrice",
          "type": "uint64"
        },
        {
          "internalType": "uint16",
          "name": "slippageBps",
          "type": "uint16"
        },
        {
          "internalType": "uint256",
          "name": "healthFactorWad",
          "type": "uint256"
        },
        {
          "internalType": "uint64",
          "name": "oracleTimestamp",
          "type": "uint64"
        },
        {
          "internalType": "bytes32",
          "name": "signalHash",
          "type": "bytes32"
        },
        {
          "internalType": "bytes",
          "name": "proof",
          "type": "bytes"
        }
      ],
      "name": "rebalance",
      "outputs": [],
      "stateMutability": "nonpayable",
      "type": "function"
    },
    {
      "inputs": [],
      "name": "safetyGateway",
      "outputs": [
        {
          "internalType": "address",
          "name": "",
          "type": "address"
        }
      ],
      "stateMutability": "view",
      "type": "function"
    },
    {
      "inputs": [
        {
          "internalType": "uint64",
          "name": "minPrice",
          "type": "uint64"
        },
        {
          "internalType": "uint64",
          "name": "maxPrice",
          "type": "uint64"
        }
      ],
      "name": "setOracleBounds",
      "outputs": [],
      "stateMutability": "nonpayable",
      "type": "function"
    },
    {
      "inputs": [
        {
          "internalType": "address",
          "name": "newPolicyUpdater",
          "type": "address"
        }
      ],
      "name": "setPolicyUpdater",
      "outputs": [],
      "stateMutability": "nonpayable",
      "type": "function"
    },
    {
      "inputs": [
        {
          "internalType": "address",
          "name": "",
          "type": "address"
        }
      ],
      "name": "shareBalance",
      "outputs": [
        {
          "internalType": "uint256",
          "name": "",
          "type": "uint256"
        }
      ],
      "stateMutability": "view",
      "type": "function"
    },
    {
      "inputs": [],
      "name": "totalAssets",
      "outputs": [
        {
          "internalType": "uint256",
          "name": "",
          "type": "uint256"
        }
      ],
      "stateMutability": "view",
      "type": "function"
    },
    {
      "inputs": [],
      "name": "totalShares",
      "outputs": [
        {
          "internalType": "uint256",
          "name": "",
          "type": "uint256"
        }
      ],
      "stateMutability": "view",
      "type": "function"
    },
    {
      "inputs": [
        {
          "internalType": "address",
          "name": "newOwner",
          "type": "address"
        }
      ],
      "name": "transferOwnership",
      "outputs": [],
      "stateMutability": "nonpayable",
      "type": "function"
    },
    {
      "inputs": [
        {
          "internalType": "uint256",
          "name": "sharesBurned",
          "type": "uint256"
        }
      ],
      "name": "withdraw",
      "outputs": [
        {
          "internalType": "uint256",
          "name": "assetsReturned",
          "type": "uint256"
        }
      ],
      "stateMutability": "nonpayable",
      "type": "function"
    }
  ],
  "bytecode": "0x60c0604052346101f157604051601f610ec538819003918201601f19168301916001600160401b038311848410176101b8578084926060946040528339810103126101f15761004d816101f5565b610065604061005e602085016101f5565b93016101f5565b6001600160a01b0390911691821580156101e0575b6101d1575f80546001600160a01b031916331790556001600160a01b0381166101cc5750335b600180546001600160a01b0319166001600160a01b0392909216918217905560809290925260a052600480546001600160801b0319166fffffffffffffffff0000000000000001179055604051606081016001600160401b038111828210176101b857604090815261138880835260208301525f918101829052600580546001600160601b031916631388138817905551919033907f8be0079c531659141344cd1fd0a4f28419497f9722a3daafe3b4186f6b6457e08180a35f7f87a47a8d9a2c1e4c2cfc1a34b44ee45d7b8c2c8802a679ebd16f0843202a98108180a3610cbb908161020a82396080518181816102b2015281816108bb015281816109c90152610bb8015260a0518181816104ae01526105bf0152f35b634e487b7160e01b5f52604160045260245ffd5b6100a0565b63b4fa3fb360e01b5f5260045ffd5b506001600160a01b0382161561007a565b5f80fd5b51906001600160a01b03821682036101f15756fe60806040526004361015610011575f80fd5b5f3560e01c806301e1d11414610b445780631e93de5014610a715780632e1a7d4d1461092e5780633426cdbb1461090557806336109fbe146108ea57806338d52e0f146108a65780633a98ef39146108895780634b3c860e1461086d5780634dd46c03146104dd5780635ab929c9146104995780637a6289c31461047757806387793ba31461043b57806388a17bde146103fb5780638da5cb5b146103d4578063b085325d146103ac578063b6b55f251461024b578063c753b50514610225578063e229cd761461020a578063e86663fc1461018b5763f2fde38b146100f5575f80fd5b34610187576020366003190112610187576004356001600160a01b03811690819003610187575f546001600160a01b0381163381900361017957821561016a5782907f8be0079c531659141344cd1fd0a4f28419497f9722a3daafe3b4186f6b6457e05f80a36001600160a01b031916175f55005b63b4fa3fb360e01b5f5260045ffd5b6282b42960e81b5f5260045ffd5b5f80fd5b34610187576020366003190112610187576004356001600160a01b03811690819003610187575f546001600160a01b0316330361017957801561016a57600154816001600160a01b0382167f87a47a8d9a2c1e4c2cfc1a34b44ee45d7b8c2c8802a679ebd16f0843202a98105f80a36001600160a01b03191617600155005b34610187575f36600319011261018757602060405160328152f35b34610187575f3660031901126101875760206001600160401b0360045416604051908152f35b3461018757602036600319011261018757600435801561016a5761026d610b9d565b60025490811580156103a4575b1561038d575050805b801561016a576040516323b872dd60e01b8152336004820152306024820152604481018390526020816064815f7f00000000000000000000000000000000000000000000000000000000000000006001600160a01b03165af1908115610382575f91610353575b501561016a576020916102ff82600254610c78565b600255335f526003835260405f20610318838254610c78565b905560405190815281838201527f73a19dd210f1a7f902193214c0ee91dd35ee5b4d920cba8d519eca65a7b488ca60403392a2604051908152f35b610375915060203d60201161037b575b61036d8183610b7c565b810190610c60565b836102ea565b503d610363565b6040513d5f823e3d90fd5b61039a61039f9284610c22565b610c35565b610283565b50801561027a565b34610187575f366003190112610187576001546040516001600160a01b039091168152602090f35b34610187575f366003190112610187575f546040516001600160a01b039091168152602090f35b34610187575f3660031901126101875760606005546001600160401b036040519161ffff8116835261ffff8160101c16602084015260201c166040820152f35b34610187576020366003190112610187576004356001600160a01b03811690819003610187575f526003602052602060405f2054604051908152f35b34610187575f3660031901126101875760206040516710a741a4627800008152f35b34610187575f366003190112610187576040517f00000000000000000000000000000000000000000000000000000000000000006001600160a01b03168152602090f35b346101875760e0366003190112610187576004356104f9610b66565b6044359161ffff831680930361018757606435608435906001600160401b0382168092036101875760c4356001600160401b0381116101875736602382011215610187578060040135906001600160401b038211610187573660248383010111610187576001546001600160a01b03163303610179576024606460209284604051958694859363e25b19f160e01b855260a435600486015260408286015282604486015201848401375f838284010152601f801991011681010301815f60018060a01b037f0000000000000000000000000000000000000000000000000000000000000000165af1801561038257610850575b50600454946001600160401b038516956001600160401b038116871090811561083a575b50610827576001600160401b0342168084118015610803575b6107ed5750603281116107d6576710a741a46278000082106107b7575f84126107a457835b6107d0811161078c57506005549561ffff8716948086019081125f871290801582169115161761076d575f81128015610781575b61016a5761ffff1696876127100397612710891161076d5761ffff89169160405190606082019a828c106001600160401b038d1117610759576bffffffffffffffff000000006101009b8760407f97b203dddda88c795872abf552f68d3a1f2862d72c43b69c2c5e89d25229bcbb9f9661ffff978252888152896020820152015260201b169063ffff0000856bffffffffffffffffffffffff198516179160101b16171760055560405198895260101c16602088015260408701526060860152608085015260a084015260c083015260e0820152a1005b634e487b7160e01b5f52604160045260245ffd5b634e487b7160e01b5f52601160045260245ffd5b506127108113610682565b6370dcdabb60e11b5f526004526107d060245260445ffd5b600160ff1b841461076d57835f0361064e565b50637e7222b760e01b5f526004526710a741a46278000060245260445ffd5b633b5d56ed60e11b5f52600452603260245260445ffd5b836388ea8c1960e01b5f5260045260245260445ffd5b508381036001600160401b03811161076d576001600160401b03603c911611610629565b85634d1e30ed60e01b5f5260045260245ffd5b6001600160401b03915060401c16861187610610565b6108689060203d60201161037b5761036d8183610b7c565b6105ec565b34610187575f3660031901126101875760206040516107d08152f35b34610187575f366003190112610187576020600254604051908152f35b34610187575f366003190112610187576040517f00000000000000000000000000000000000000000000000000000000000000006001600160a01b03168152602090f35b34610187575f366003190112610187576020604051603c8152f35b34610187575f3660031901126101875760206001600160401b0360045460401c16604051908152f35b3461018757602036600319011261018757600435801561016a57335f52600360205260405f2054808211610a625761097961097061096a610b9d565b84610c22565b60025490610c35565b90811561016a578261098a91610c53565b335f52600360205260405f20556109a382600254610c53565b60025560405163a9059cbb60e01b8152336004820152602481018290526020816044815f7f00000000000000000000000000000000000000000000000000000000000000006001600160a01b03165af1908115610382575f91610a43575b501561016a5760209160405190815281838201527f92ccf450a286a957af52509bc1c9939d1a6a481783e142e41e2499f0bb66ebc660403392a2604051908152f35b610a5c915060203d60201161037b5761036d8183610b7c565b83610a01565b633999656760e01b5f5260045ffd5b34610187576040366003190112610187576004356001600160401b03811680910361018757610a9e610b66565b5f549091906001600160a01b031633036101795780158015610b32575b61016a576001600160401b037f8cb384f450d4e546cbf41d191446cbe1ad8fb7273d45d9cdd5fab18a7c09575492600454836fffffffffffffffff00000000000000008360401b16916fffffffffffffffffffffffffffffffff1916171760045560405192835216602082015260408180030190a1005b506001600160401b0382168111610abb565b34610187575f366003190112610187576020610b5e610b9d565b604051908152f35b602435906001600160401b038216820361018757565b90601f801991011681019081106001600160401b0382111761075957604052565b6040516370a0823160e01b81523060048201526020816024817f00000000000000000000000000000000000000000000000000000000000000006001600160a01b03165afa908115610382575f91610bf3575090565b90506020813d602011610c1a575b81610c0e60209383610b7c565b81010312610187575190565b3d9150610c01565b8181029291811591840414171561076d57565b8115610c3f570490565b634e487b7160e01b5f52601260045260245ffd5b9190820391821161076d57565b90816020910312610187575180151581036101875790565b9190820180921161076d5756fea2646970667358221220791d47d566fb19118a850f9490f07f4442e7bbd91215d8186c7a1381e643dfa564736f6c634300081a0033",
  "linkReferences": {},
  "deployedLinkReferences": {}
}