{
  "_format": "hh-sol-artifact-1",
  "contractName": "AdaptiveVault",
  "sourceName": "contracts/AdaptiveVault.sol",
  "abi": [
    {
      "inputs": [
        {
          "internalType": "address",
          "name": "assetAddress",
          "type": "address"
        },
        {
          "internalType": "address",
          "name": "initialPolicyUpdater",
          "type": "address"
        },
        {
          "internalType": "address",
          "name": "gatewayAddress",
          "type": "address"
        },
        {
          "internalType": "address",
          "name": "priceFeedAddress",
          "type": "address"
        },
        {
          "internalType": "address",
          "name": "poolAAddress",
          "type": "address"
        },
        {
          "internalType": "address",
          "name": "poolBAddress",
          "type": "address"
        }
      ],
      "stateMutability": "nonpayable",
      "type": "constructor"
    },
    {
      "inputs": [
        {
          "internalType": "uint256",
          "name": "observedHealthFactor",
          "type": "uint256"
        },
        {
          "internalType": "uint256",
          "name": "minHealthFactor",
          "type": "uint256"
        }
      ],
      "name": "HealthFactorTooLow",
      "type": "error"
    },
    {
      "inputs": [],
      "name": "InsufficientShares",
      "type": "error"
    },
    {
      "inputs": [],
      "name": "InvalidInput",
      "type": "error"
    },
    {
      "inputs": [
        {
          "internalType": "uint64",
          "name": "oraclePrice",
          "type": "uint64"
        }
      ],
      "name": "OracleOutOfBounds",
      "type": "error"
    },
    {
      "inputs": [
        {
          "internalType": "uint64",
          "name": "oracleTimestamp",
          "type": "uint64"
        },
        {
          "internalType": "uint64",
          "name": "currentTimestamp",
          "type": "uint64"
        }
      ],
      "name": "OracleStale",
      "type": "error"
    },
    {
      "inputs": [
        {
          "internalType": "uint256",
          "name": "attemptedBps",
          "type": "uint256"
        },
        {
          "internalType": "uint256",
          "name": "maxBps",
          "type": "uint256"
        }
      ],
      "name": "RebalanceTooLarge",
      "type": "error"
    },
    {
      "inputs": [
        {
          "internalType": "uint256",
          "name": "attemptedBps",
          "type": "uint256"
        },
        {
          "internalType": "uint256",
          "name": "maxBps",
          "type": "uint256"
        }
      ],
      "name": "SlippageTooHigh",
      "type": "error"
    },
    {
      "inputs": [],
      "name": "Unauthorized",
      "type": "error"
    },
    {
      "anonymous": false,
      "inputs": [
        {
          "indexed": true,
          "internalType": "address",
          "name": "user",
          "type": "address"
        },
        {
          "indexed": false,
          "internalType": "uint256",
          "name": "assets",
          "type": "uint256"
        },
        {
          "indexed": false,
          "internalType": "uint256",
          "name": "sharesMinted",
          "type": "uint256"
        }
      ],
      "name": "Deposited",
      "type": "event"
    },
    {
      "anonymous": false,
      "inputs": [
        {
          "indexed": false,
          "internalType": "uint64",
          "name": "minPrice",
          "type": "uint64"
        },
        {
          "indexed": false,
          "internalType": "uint64",
          "name": "maxPrice",
          "type": "uint64"
        }
      ],
      "name": "OracleBoundsUpdated",
      "type": "event"
    },
    {
      "anonymous": false,
      "inputs": [
        {
          "indexed": true,
          "internalType": "address",
          "name": "previousOwner",
          "type": "address"
        },
        {
          "indexed": true,
          "internalType": "address",
          "name": "newOwner",
          "type": "address"
        }
      ],
      "name": "OwnershipTransferred",
      "type": "event"
    },
    {
      "anonymous": false,
      "inputs": [
        {
          "indexed": true,
          "internalType": "address",
          "name": "previousUpdater",
          "type": "address"
        },
        {
          "indexed": true,
          "internalType": "address",
          "name": "newUpdater",
          "type": "address"
        }
      ],
      "name": "PolicyUpdaterChanged",
      "type": "event"
    },
    {
      "anonymous": false,
      "inputs": [
        {
          "indexed": false,
          "internalType": "uint16",
          "name": "previousPoolABps",
          "type": "uint16"
        },
        {
          "indexed": false,
          "internalType": "uint16",
          "name": "previousPoolBBps",
          "type": "uint16"
        },
        {
          "indexed": false,
          "internalType": "uint16",
          "name": "newPoolABps",
          "type": "uint16"
        },
        {
          "indexed": false,
          "internalType": "uint16",
          "name": "newPoolBBps",
          "type": "uint16"
        },
        {
          "indexed": false,
          "internalType": "uint64",
          "name": "oraclePrice",
          "type": "uint64"
        },
        {
          "indexed": false,
          "internalType": "uint16",
          "name": "slippageBps",
          "type": "uint16"
        },
        {
          "indexed": false,
          "internalType": "uint256",
          "name": "healthFactorWad",
          "type": "uint256"
        },
        {
          "indexed": false,
          "internalType": "uint64",
          "name": "oracleTimestamp",
          "type": "uint64"
        }
      ],
      "name": "Rebalanced",
      "type": "event"
    },
    {
      "anonymous": false,
      "inputs": [
        {
          "indexed": true,
          "internalType": "address",
          "name": "user",
          "type": "address"
        },
        {
          "indexed": false,
          "internalType": "uint256",
          "name": "sharesBurned",
          "type": "uint256"
        },
        {
          "indexed": false,
          "internalType": "uint256",
          "name": "assetsReturned",
          "type": "uint256"
        }
      ],
      "name": "Withdrawn",
      "type": "event"
    },
    {
      "inputs": [],
      "name": "MAX_ALLOCATION_DELTA_BPS",
      "outputs": [
        {
          "internalType": "uint16",
          "name": "",
          "type": "uint16"
        }
      ],
      "stateMutability": "view",
      "type": "function"
    },
    {
      "inputs": [],
      "name": "MAX_ORACLE_STALENESS_SECONDS",
      "outputs": [
        {
          "internalType": "uint64",
          "name": "",
          "type": "uint64"
        }
      ],
      "stateMutability": "view",
      "type": "function"
    },
    {
      "inputs": [],
      "name": "MAX_SLIPPAGE_BPS",
      "outputs": [
        {
          "internalType": "uint16",
          "name": "",
          "type": "uint16"
        }
      ],
      "stateMutability": "view",
      "type": "function"
    },
    {
      "inputs": [],
      "name": "MIN_HEALTH_FACTOR_WAD",
      "outputs": [
        {
          "internalType": "uint256",
          "name": "",
          "type": "uint256"
        }
      ],
      "stateMutability": "view",
      "type": "function"
    },
    {
      "inputs": [],
      "name": "allocation",
      "outputs": [
        {
          "internalType": "uint16",
          "name": "poolABps",
          "type": "uint16"
        },
        {
          "internalType": "uint16",
          "name": "poolBBps",
          "type": "uint16"
        },
        {
          "internalType": "uint64",
          "name": "lastOraclePrice",
          "type": "uint64"
        }
      ],
      "stateMutability": "view",
      "type": "function"
    },
    {
      "inputs": [],
      "name": "asset",
      "outputs": [
        {
          "internalType": "contract IERC20Like",
          "name": "",
          "type": "address"
        }
      ],
      "stateMutability": "view",
      "type": "function"
    },
    {
      "inputs": [
        {
          "internalType": "uint256",
          "name": "assets",
          "type": "uint256"
        }
      ],
      "name": "deposit",
      "outputs": [
        {
          "internalType": "uint256",
          "name": "sharesMinted",
          "type": "uint256"
        }
      ],
      "stateMutability": "nonpayable",
      "type": "function"
    },
    {
      "inputs": [],
      "name": "oracleMaxPrice",
      "outputs": [
        {
          "internalType": "uint64",
          "name": "",
          "type": "uint64"
        }
      ],
      "stateMutability": "view",
      "type": "function"
    },
    {
      "inputs": [],
      "name": "oracleMinPrice",
      "outputs": [
        {
          "internalType": "uint64",
          "name": "",
          "type": "uint64"
        }
      ],
      "stateMutability": "view",
      "type": "function"
    },
    {
      "inputs": [],
      "name": "owner",
      "outputs": [
        {
          "internalType": "address",
          "name": "",
          "type": "address"
        }
      ],
      "stateMutability": "view",
      "type": "function"
    },
    {
      "inputs": [],
      "name": "policyUpdater",
      "outputs": [
        {
          "internalType": "address",
          "name": "",
          "type": "address"
        }
      ],
      "stateMutability": "view",
      "type": "function"
    },
    {
      "inputs": [],
      "name": "poolA",
      "outputs": [
        {
          "internalType": "contract IMockLendingPool",
          "name": "",
          "type": "address"
        }
      ],
      "stateMutability": "view",
      "type": "function"
    },
    {
      "inputs": [],
      "name": "poolB",
      "outputs": [
        {
          "internalType": "contract IMockLendingPool",
          "name": "",
          "type": "address"
        }
      ],
      "stateMutability": "view",
      "type": "function"
    },
    {
      "inputs": [],
      "name": "priceFeed",
      "outputs": [
        {
          "internalType": "contract AggregatorV3Interface",
          "name": "",
          "type": "address"
        }
      ],
      "stateMutability": "view",
      "type": "function"
    },
    {
      "inputs": [
        {
          "internalType": "int256",
          "name": "deltaPoolABps",
          "type": "int256"
        },
        {
          "internalType": "uint16",
          "name": "slippageBps",
          "type": "uint16"
        },
        {
          "internalType": "uint256",
          "name": "healthFactorWad",
          "type": "uint256"
        },
        {
          "internalType": "bytes32",
          "name": "signalHash",
          "type": "bytes32"
        },
        {
          "internalType": "bytes",
          "name": "proof",
          "type": "bytes"
        }
      ],
      "name": "rebalance",
      "outputs": [],
      "stateMutability": "nonpayable",
      "type": "function"
    },
    {
      "inputs": [],
      "name": "safetyGateway",
      "outputs": [
        {
          "internalType": "address",
          "name": "",
          "type": "address"
        }
      ],
      "stateMutability": "view",
      "type": "function"
    },
    {
      "inputs": [
        {
          "internalType": "uint64",
          "name": "minPrice",
          "type": "uint64"
        },
        {
          "internalType": "uint64",
          "name": "maxPrice",
          "type": "uint64"
        }
      ],
      "name": "setOracleBounds",
      "outputs": [],
      "stateMutability": "nonpayable",
      "type": "function"
    },
    {
      "inputs": [
        {
          "internalType": "address",
          "name": "newPolicyUpdater",
          "type": "address"
        }
      ],
      "name": "setPolicyUpdater",
      "outputs": [],
      "stateMutability": "nonpayable",
      "type": "function"
    },
    {
      "inputs": [
        {
          "internalType": "address",
          "name": "",
          "type": "address"
        }
      ],
      "name": "shareBalance",
      "outputs": [
        {
          "internalType": "uint256",
          "name": "",
          "type": "uint256"
        }
      ],
      "stateMutability": "view",
      "type": "function"
    },
    {
      "inputs": [],
      "name": "totalAssets",
      "outputs": [
        {
          "internalType": "uint256",
          "name": "",
          "type": "uint256"
        }
      ],
      "stateMutability": "view",
      "type": "function"
    },
    {
      "inputs": [],
      "name": "totalShares",
      "outputs": [
        {
          "internalType": "uint256",
          "name": "",
          "type": "uint256"
        }
      ],
      "stateMutability": "view",
      "type": "function"
    },
    {
      "inputs": [
        {
          "internalType": "address",
          "name": "newOwner",
          "type": "address"
        }
      ],
      "name": "transferOwnership",
      "outputs": [],
      "stateMutability": "nonpayable",
      "type": "function"
    },
    {
      "inputs": [
        {
          "internalType": "uint256",
          "name": "sharesBurned",
          "type": "uint256"
        }
      ],
      "name": "withdraw",
      "outputs": [
        {
          "internalType": "uint256",
          "name": "assetsReturned",
          "type": "uint256"
        }
      ],
      "stateMutability": "nonpayable",
      "type": "function"
    }
  ],
  "bytecode": "0x61012080604052346103975760c081611a598038038091610020828561039b565b83398101031261039757610033816103be565b61003f602083016103be565b9161004c604082016103be565b90610059606082016103be565b9361007260a061006b608085016103be565b93016103be565b936001600160a01b03169182158015610386575b8015610375575b8015610364575b8015610353575b610344575f80546001600160a01b03191633178155956020946044936001600160a01b03811661033f5750335b600180546001600160a01b0319166001600160a01b03928316179055608086905260a09190915290811660c05290811660e0819052941661010081905260405163095ea7b360e01b8152600481019590955285196024860152939485928391905af1908115610319575f92602092610324575b5060805160405163095ea7b360e01b81526004810192909252831960248301529092839160449183916001600160a01b03165af18015610319576102ec575b50600480546001600160801b0319166fffffffffffffffff0000000000000001179055604051606081016001600160401b038111828210176102d857604090815261138880835260208301525f918101829052600580546001600160601b0319166313881388179055519033907f8be0079c531659141344cd1fd0a4f28419497f9722a3daafe3b4186f6b6457e08180a36001546001600160a01b03165f7f87a47a8d9a2c1e4c2cfc1a34b44ee45d7b8c2c8802a679ebd16f0843202a98108180a361166e90816103eb823960805181818161038401528181610a1c01528181610fdf015281816111200152611435015260a0518181816107a60152610f5f015260c0518181816106b701526107f2015260e0518181816102c6015281816104d40152818161095201528181611230015261148a01526101005181818161028101528181610457015281816109b3015281816111bc01526114e80152f35b634e487b7160e01b5f52604160045260245ffd5b61030d9060203d602011610312575b610305818361039b565b8101906103d2565b61017a565b503d6102fb565b6040513d5f823e3d90fd5b61033a90833d851161031257610305818361039b565b61013b565b6100c8565b63b4fa3fb360e01b5f5260045ffd5b506001600160a01b0385161561009b565b506001600160a01b03811615610094565b506001600160a01b0386161561008d565b506001600160a01b03841615610086565b5f80fd5b601f909101601f19168101906001600160401b038211908210176102d857604052565b51906001600160a01b038216820361039757565b9081602091031261039757518015158103610397579056fe60806040526004361015610011575f80fd5b5f803560e01c806301e1d114146113a25780631e93de50146112d05780632e1a7d4d146110545780633426cdbb1461102a57806336109fbe1461100e57806338d52e0f14610fc95780633a98ef3914610fab5780634b3c860e14610f8e5780635ab929c914610f495780636fc079ef146106e6578063741bef1a146106a15780637a6289c31461067e57806387793ba31461064157806388a17bde146106005780638da5cb5b146105d9578063b085325d146105b0578063b6b55f251461031c578063c753b505146102f5578063cbbf425f146102b0578063d4a2aa331461026b578063e229cd761461024f578063e86663fc146101b15763f2fde38b14610117575f80fd5b346101ae5760203660031901126101ae576004356001600160a01b038116908190036101aa5781546001600160a01b0381163381900361019c57821561018d5782907f8be0079c531659141344cd1fd0a4f28419497f9722a3daafe3b4186f6b6457e08580a36001600160a01b03191617815580f35b63b4fa3fb360e01b8452600484fd5b6282b42960e81b8452600484fd5b5080fd5b80fd5b50346101ae5760203660031901126101ae576004356001600160a01b038116908190036101aa5781546001600160a01b0316330361024157801561023257600154816001600160a01b0382167f87a47a8d9a2c1e4c2cfc1a34b44ee45d7b8c2c8802a679ebd16f0843202a98108580a36001600160a01b0319161760015580f35b63b4fa3fb360e01b8252600482fd5b6282b42960e81b8252600482fd5b50346101ae57806003193601126101ae57602060405160328152f35b50346101ae57806003193601126101ae576040517f00000000000000000000000000000000000000000000000000000000000000006001600160a01b03168152602090f35b50346101ae57806003193601126101ae576040517f00000000000000000000000000000000000000000000000000000000000000006001600160a01b03168152602090f35b50346101ae57806003193601126101ae5760206001600160401b0360045416604051908152f35b50346101ae5760203660031901126101ae5760043580156102325761033f61141a565b60025490811580156105a8575b15610590575050805b8115610552576040516323b872dd60e01b815233600482015230602482015260448101829052602081606481877f00000000000000000000000000000000000000000000000000000000000000006001600160a01b03165af19081156104c7578491610561575b5015610552576127106103d561ffff60055416836115cb565b04836103e182846115fc565b91806104d2575b505080610453575b506040602093610402846002546113f9565b60025533815260038552206104188382546113f9565b905560405190815281838201527f73a19dd210f1a7f902193214c0ee91dd35ee5b4d920cba8d519eca65a7b488ca60403392a2604051908152f35b83907f00000000000000000000000000000000000000000000000000000000000000006001600160a01b0316803b156104c35760248392604051948593849263b6b55f2560e01b845260048401525af180156104c757156103f0576104b98480926113c4565b6104c3575f6103f0565b8280fd5b6040513d86823e3d90fd5b7f00000000000000000000000000000000000000000000000000000000000000006001600160a01b031690813b156104c357829160248392604051948593849263b6b55f2560e01b845260048401525af1801561054757156103e85781610538916113c4565b61054357835f6103e8565b8380fd5b6040513d84823e3d90fd5b63b4fa3fb360e01b8352600483fd5b610583915060203d602011610589575b61057b81836113c4565b810190611609565b5f6103bc565b503d610571565b61059d6105a292846115cb565b6115de565b90610355565b50801561034c565b50346101ae57806003193601126101ae576001546040516001600160a01b039091168152602090f35b50346101ae57806003193601126101ae57546040516001600160a01b039091168152602090f35b50346101ae57806003193601126101ae5760606005546001600160401b036040519161ffff8116835261ffff8160101c16602084015260201c166040820152f35b50346101ae5760203660031901126101ae576004356001600160a01b038116908190036101aa578160409160209352600383522054604051908152f35b50346101ae57806003193601126101ae5760206040516710a741a4627800008152f35b50346101ae57806003193601126101ae576040517f00000000000000000000000000000000000000000000000000000000000000006001600160a01b03168152602090f35b50346101ae5760a03660031901126101ae576004356024359061ffff82168092036104c357604435916084356001600160401b038111610f125736602382011215610f12578060040135906001600160401b038211610c54573660248383010111610c54576001546001600160a01b03163303610f3b576024606460209284604051958694859363e25b19f160e01b855285356004860152604082860152826044860152018484013781810183018a9052601f01601f19168101030181887f00000000000000000000000000000000000000000000000000000000000000006001600160a01b03165af18015610c4957610f1e575b50604051633fabe5a360e21b81529260a0846004817f00000000000000000000000000000000000000000000000000000000000000006001600160a01b03165afa918215610c495785948693610ec4575b5085851315610eb5576001600160401b038086169316926004546001600160401b0381168210908115610e9f575b50610e8d576001600160401b0342168085118015610e69575b610e52575060328211610e39576710a741a4627800008310610e1957868512610df257845b6107d08111610dda57506005549561ffff871695808701908112898812908015821691151617610dc6578881128015610dbb575b610dac5761ffff169687612710036127108111610d985761ffff811692604051606081018181106001600160401b03821117610d845760406bffffffffffffffff000000009392889282528d8152876020820152015260201b169063ffff00008a6bffffffffffffffffffffffff198516179160101b1617176005558860018060a01b037f0000000000000000000000000000000000000000000000000000000000000000166040519063f8b2cb4f60e01b8252306004830152602082602481845afa918215610d79578392610d42575b5060405163f8b2cb4f60e01b81523060048201527f00000000000000000000000000000000000000000000000000000000000000006001600160a01b0316929091602083602481875afa928315610c49578593610d0b575b50610a0083836113f9565b6040516370a0823160e01b8152306004820152906020826024817f00000000000000000000000000000000000000000000000000000000000000006001600160a01b03165afa908115610d00578f928892610cc0575b50610a71610a6a610a7993612710936113f9565b93846115cb565b0480926115fc565b9281811115610c585790610a8c916115fc565b813b15610c54578591602483926040519485938492632e1a7d4d60e01b845260048401525af1908115610c49578591610c34575b50505b80821115610b8f57610ad4916115fc565b813b156104c3578291602483926040519485938492632e1a7d4d60e01b845260048401525af1801561054757610b68575b5050907f97b203dddda88c795872abf552f68d3a1f2862d72c43b69c2c5e89d25229bcbb9761ffff6101009897969594935b60405198895260101c16602088015260408701526060860152608085015260a084015260c083015260e0820152a180f35b81610b7a9199989796959493996113c4565b610b8b57909192939495885f610b05565b8880fd5b808210610bcf575b50505050907f97b203dddda88c795872abf552f68d3a1f2862d72c43b69c2c5e89d25229bcbb9761ffff610100989796959493610b37565b90610bd9916115fc565b813b156104c357829160248392604051948593849263b6b55f2560e01b845260048401525af1801561054757610c11575b8080610b97565b81610c239199989796959493996113c4565b610b8b57909192939495885f610c0a565b81610c3e916113c4565b61054357835f610ac0565b6040513d87823e3d90fd5b8580fd5b818110610c68575b505050610ac3565b610c71916115fc565b813b15610c5457859160248392604051948593849263b6b55f2560e01b845260048401525af1908115610c49578591610cab575b80610c60565b81610cb5916113c4565b61054357835f610ca5565b92509650506020813d602011610cf8575b81610cde602093836113c4565b81010312610cf457518e958e9190610a71610a56565b5f80fd5b3d9150610cd1565b6040513d89823e3d90fd5b945091506020843d602011610d3a575b81610d28602093836113c4565b81010312610cf4578c9351915f6109f5565b3d9150610d1b565b925090506020823d602011610d71575b81610d5f602093836113c4565b81010312610cf4578a9151905f61099d565b3d9150610d52565b6040513d85823e3d90fd5b634e487b7160e01b8d52604160045260248dfd5b634e487b7160e01b8a52601160045260248afd5b63b4fa3fb360e01b8952600489fd5b5061271081136108cc565b634e487b7160e01b89526011600452602489fd5b6370dcdabb60e11b88526004526107d0602452604487fd5b600160ff1b8514610e0557848703610898565b634e487b7160e01b87526011600452602487fd5b637e7222b760e01b875260048390526710a741a462780000602452604487fd5b633b5d56ed60e11b875260048290526032602452604487fd5b6388ea8c1960e01b88526004859052602452604487fd5b508481036001600160401b038111610dc6576001600160401b03603c911611610873565b634d1e30ed60e01b8752600452602486fd5b6001600160401b03915060401c1681115f61085a565b63b4fa3fb360e01b8652600486fd5b9450915060a0843d60a011610f16575b81610ee160a093836113c4565b81010312610f1257610ef284611621565b506020840151610f09608060608701519601611621565b5093915f61082c565b8480fd5b3d9150610ed4565b610f369060203d6020116105895761057b81836113c4565b6107db565b6282b42960e81b8652600486fd5b50346101ae57806003193601126101ae576040517f00000000000000000000000000000000000000000000000000000000000000006001600160a01b03168152602090f35b50346101ae57806003193601126101ae5760206040516107d08152f35b50346101ae57806003193601126101ae576020600254604051908152f35b50346101ae57806003193601126101ae576040517f00000000000000000000000000000000000000000000000000000000000000006001600160a01b03168152602090f35b50346101ae57806003193601126101ae576020604051603c8152f35b50346101ae57806003193601126101ae5760206001600160401b0360045460401c16604051908152f35b5034610cf4576020366003190112610cf45760043580156112b257335f52600360205260405f2054908181116112c1576110a161109861109261141a565b836115cb565b600254906115de565b9182156112b257816110b2916115fc565b335f52600360205260405f20556110cb816002546115fc565b600255826127106110e261ffff60055416856115cb565b046110ed81856115fc565b908061122b575b50806111ba575b505060405163a9059cbb60e01b815233600482015260248101839052602081604481877f00000000000000000000000000000000000000000000000000000000000000006001600160a01b03165af19081156104c757849161119b575b5015610552576020925060405190815281838201527f92ccf450a286a957af52509bc1c9939d1a6a481783e142e41e2499f0bb66ebc660403392a2604051908152f35b6111b4915060203d6020116105895761057b81836113c4565b5f611158565b7f00000000000000000000000000000000000000000000000000000000000000006001600160a01b031690813b156104c3578291602483926040519485938492632e1a7d4d60e01b845260048401525af1801561054757156110fb5781611220916113c4565b6104c357825f6110fb565b9091507f00000000000000000000000000000000000000000000000000000000000000006001600160a01b031690813b15610cf4575f91602483926040519485938492632e1a7d4d60e01b845260048401525af180156112a757611292575b9084916110f4565b61129f9194505f906113c4565b5f925f61128a565b6040513d5f823e3d90fd5b63b4fa3fb360e01b5f5260045ffd5b633999656760e01b5f5260045ffd5b34610cf4576040366003190112610cf4576004356001600160401b038116809103610cf457602435906001600160401b038216808303610cf4575f546001600160a01b03163303611394578115801561138b575b6112b257600480546fffffffffffffffffffffffffffffffff19168317604094851b6fffffffffffffffff000000000000000016179055825191825260208201527f8cb384f450d4e546cbf41d191446cbe1ad8fb7273d45d9cdd5fab18a7c0957549190a1005b50808211611324565b6282b42960e81b5f5260045ffd5b34610cf4575f366003190112610cf45760206113bc61141a565b604051908152f35b90601f801991011681019081106001600160401b038211176113e557604052565b634e487b7160e01b5f52604160045260245ffd5b9190820180921161140657565b634e487b7160e01b5f52601160045260245ffd5b6040516370a0823160e01b81523060048201526020816024817f00000000000000000000000000000000000000000000000000000000000000006001600160a01b03165afa9081156112a7575f91611599575b5060405163f8b2cb4f60e01b8152306004820152906020826024817f00000000000000000000000000000000000000000000000000000000000000006001600160a01b03165afa9081156112a7575f91611563575b6114cc92506113f9565b60405163f8b2cb4f60e01b8152306004820152906020826024817f00000000000000000000000000000000000000000000000000000000000000006001600160a01b03165afa9081156112a7575f9161152d575b61152a92506113f9565b90565b90506020823d60201161155b575b81611548602093836113c4565b81010312610cf45761152a915190611520565b3d915061153b565b90506020823d602011611591575b8161157e602093836113c4565b81010312610cf4576114cc9151906114c2565b3d9150611571565b90506020813d6020116115c3575b816115b4602093836113c4565b81010312610cf457515f61146d565b3d91506115a7565b8181029291811591840414171561140657565b81156115e8570490565b634e487b7160e01b5f52601260045260245ffd5b9190820391821161140657565b90816020910312610cf457518015158103610cf45790565b519069ffffffffffffffffffff82168203610cf45756fea2646970667358221220246f56a1049103c4ce7c88371501a471d20203541d826acf56ae0f4d47c2e25264736f6c634300081a0033",
  "linkReferences": {},
  "deployedLinkReferences": {}
}