{
  "_format": "hh-sol-artifact-1",
  "contractName": "AdaptiveVault",
  "sourceName": "contracts/AdaptiveVault.sol",
  "abi": [
    {
      "inputs": [
        {
          "internalType": "address",
          "name": "assetAddress",
          "type": "address"
        },
        {
          "internalType": "address",
          "name": "initialPolicyUpdater",
          "type": "address"
        }
      ],
      "stateMutability": "nonpayable",
      "type": "constructor"
    },
    {
      "inputs": [
        {
          "internalType": "uint256",
          "name": "observedHealthFactor",
          "type": "uint256"
        },
        {
          "internalType": "uint256",
          "name": "minHealthFactor",
          "type": "uint256"
        }
      ],
      "name": "HealthFactorTooLow",
      "type": "error"
    },
    {
      "inputs": [],
      "name": "InsufficientShares",
      "type": "error"
    },
    {
      "inputs": [],
      "name": "InvalidInput",
      "type": "error"
    },
    {
      "inputs": [
        {
          "internalType": "uint64",
          "name": "oraclePrice",
          "type": "uint64"
        }
      ],
      "name": "OracleOutOfBounds",
      "type": "error"
    },
    {
      "inputs": [
        {
          "internalType": "uint64",
          "name": "oracleTimestamp",
          "type": "uint64"
        },
        {
          "internalType": "uint64",
          "name": "currentTimestamp",
          "type": "uint64"
        }
      ],
      "name": "OracleStale",
      "type": "error"
    },
    {
      "inputs": [
        {
          "internalType": "uint256",
          "name": "attemptedBps",
          "type": "uint256"
        },
        {
          "internalType": "uint256",
          "name": "maxBps",
          "type": "uint256"
        }
      ],
      "name": "RebalanceTooLarge",
      "type": "error"
    },
    {
      "inputs": [
        {
          "internalType": "uint256",
          "name": "attemptedBps",
          "type": "uint256"
        },
        {
          "internalType": "uint256",
          "name": "maxBps",
          "type": "uint256"
        }
      ],
      "name": "SlippageTooHigh",
      "type": "error"
    },
    {
      "inputs": [],
      "name": "Unauthorized",
      "type": "error"
    },
    {
      "anonymous": false,
      "inputs": [
        {
          "indexed": true,
          "internalType": "address",
          "name": "user",
          "type": "address"
        },
        {
          "indexed": false,
          "internalType": "uint256",
          "name": "assets",
          "type": "uint256"
        },
        {
          "indexed": false,
          "internalType": "uint256",
          "name": "sharesMinted",
          "type": "uint256"
        }
      ],
      "name": "Deposited",
      "type": "event"
    },
    {
      "anonymous": false,
      "inputs": [
        {
          "indexed": false,
          "internalType": "uint64",
          "name": "minPrice",
          "type": "uint64"
        },
        {
          "indexed": false,
          "internalType": "uint64",
          "name": "maxPrice",
          "type": "uint64"
        }
      ],
      "name": "OracleBoundsUpdated",
      "type": "event"
    },
    {
      "anonymous": false,
      "inputs": [
        {
          "indexed": true,
          "internalType": "address",
          "name": "previousOwner",
          "type": "address"
        },
        {
          "indexed": true,
          "internalType": "address",
          "name": "newOwner",
          "type": "address"
        }
      ],
      "name": "OwnershipTransferred",
      "type": "event"
    },
    {
      "anonymous": false,
      "inputs": [
        {
          "indexed": true,
          "internalType": "address",
          "name": "previousUpdater",
          "type": "address"
        },
        {
          "indexed": true,
          "internalType": "address",
          "name": "newUpdater",
          "type": "address"
        }
      ],
      "name": "PolicyUpdaterChanged",
      "type": "event"
    },
    {
      "anonymous": false,
      "inputs": [
        {
          "indexed": false,
          "internalType": "uint16",
          "name": "previousPoolABps",
          "type": "uint16"
        },
        {
          "indexed": false,
          "internalType": "uint16",
          "name": "previousPoolBBps",
          "type": "uint16"
        },
        {
          "indexed": false,
          "internalType": "uint16",
          "name": "newPoolABps",
          "type": "uint16"
        },
        {
          "indexed": false,
          "internalType": "uint16",
          "name": "newPoolBBps",
          "type": "uint16"
        },
        {
          "indexed": false,
          "internalType": "uint64",
          "name": "oraclePrice",
          "type": "uint64"
        },
        {
          "indexed": false,
          "internalType": "uint16",
          "name": "slippageBps",
          "type": "uint16"
        },
        {
          "indexed": false,
          "internalType": "uint256",
          "name": "healthFactorWad",
          "type": "uint256"
        },
        {
          "indexed": false,
          "internalType": "uint64",
          "name": "oracleTimestamp",
          "type": "uint64"
        }
      ],
      "name": "Rebalanced",
      "type": "event"
    },
    {
      "anonymous": false,
      "inputs": [
        {
          "indexed": true,
          "internalType": "address",
          "name": "user",
          "type": "address"
        },
        {
          "indexed": false,
          "internalType": "uint256",
          "name": "sharesBurned",
          "type": "uint256"
        },
        {
          "indexed": false,
          "internalType": "uint256",
          "name": "assetsReturned",
          "type": "uint256"
        }
      ],
      "name": "Withdrawn",
      "type": "event"
    },
    {
      "inputs": [],
      "name": "MAX_ALLOCATION_DELTA_BPS",
      "outputs": [
        {
          "internalType": "uint16",
          "name": "",
          "type": "uint16"
        }
      ],
      "stateMutability": "view",
      "type": "function"
    },
    {
      "inputs": [],
      "name": "MAX_ORACLE_STALENESS_SECONDS",
      "outputs": [
        {
          "internalType": "uint64",
          "name": "",
          "type": "uint64"
        }
      ],
      "stateMutability": "view",
      "type": "function"
    },
    {
      "inputs": [],
      "name": "MAX_SLIPPAGE_BPS",
      "outputs": [
        {
          "internalType": "uint16",
          "name": "",
          "type": "uint16"
        }
      ],
      "stateMutability": "view",
      "type": "function"
    },
    {
      "inputs": [],
      "name": "MIN_HEALTH_FACTOR_WAD",
      "outputs": [
        {
          "internalType": "uint256",
          "name": "",
          "type": "uint256"
        }
      ],
      "stateMutability": "view",
      "type": "function"
    },
    {
      "inputs": [],
      "name": "allocation",
      "outputs": [
        {
          "internalType": "uint16",
          "name": "poolABps",
          "type": "uint16"
        },
        {
          "internalType": "uint16",
          "name": "poolBBps",
          "type": "uint16"
        },
        {
          "internalType": "uint64",
          "name": "lastOraclePrice",
          "type": "uint64"
        }
      ],
      "stateMutability": "view",
      "type": "function"
    },
    {
      "inputs": [],
      "name": "asset",
      "outputs": [
        {
          "internalType": "contract IERC20Like",
          "name": "",
          "type": "address"
        }
      ],
      "stateMutability": "view",
      "type": "function"
    },
    {
      "inputs": [
        {
          "internalType": "uint256",
          "name": "assets",
          "type": "uint256"
        }
      ],
      "name": "deposit",
      "outputs": [
        {
          "internalType": "uint256",
          "name": "sharesMinted",
          "type": "uint256"
        }
      ],
      "stateMutability": "nonpayable",
      "type": "function"
    },
    {
      "inputs": [],
      "name": "oracleMaxPrice",
      "outputs": [
        {
          "internalType": "uint64",
          "name": "",
          "type": "uint64"
        }
      ],
      "stateMutability": "view",
      "type": "function"
    },
    {
      "inputs": [],
      "name": "oracleMinPrice",
      "outputs": [
        {
          "internalType": "uint64",
          "name": "",
          "type": "uint64"
        }
      ],
      "stateMutability": "view",
      "type": "function"
    },
    {
      "inputs": [],
      "name": "owner",
      "outputs": [
        {
          "internalType": "address",
          "name": "",
          "type": "address"
        }
      ],
      "stateMutability": "view",
      "type": "function"
    },
    {
      "inputs": [],
      "name": "policyUpdater",
      "outputs": [
        {
          "internalType": "address",
          "name": "",
          "type": "address"
        }
      ],
      "stateMutability": "view",
      "type": "function"
    },
    {
      "inputs": [
        {
          "internalType": "int256",
          "name": "deltaPoolABps",
          "type": "int256"
        },
        {
          "internalType": "uint64",
          "name": "oraclePrice",
          "type": "uint64"
        },
        {
          "internalType": "uint16",
          "name": "slippageBps",
          "type": "uint16"
        },
        {
          "internalType": "uint256",
          "name": "healthFactorWad",
          "type": "uint256"
        },
        {
          "internalType": "uint64",
          "name": "oracleTimestamp",
          "type": "uint64"
        }
      ],
      "name": "rebalance",
      "outputs": [],
      "stateMutability": "nonpayable",
      "type": "function"
    },
    {
      "inputs": [
        {
          "internalType": "uint64",
          "name": "minPrice",
          "type": "uint64"
        },
        {
          "internalType": "uint64",
          "name": "maxPrice",
          "type": "uint64"
        }
      ],
      "name": "setOracleBounds",
      "outputs": [],
      "stateMutability": "nonpayable",
      "type": "function"
    },
    {
      "inputs": [
        {
          "internalType": "address",
          "name": "newPolicyUpdater",
          "type": "address"
        }
      ],
      "name": "setPolicyUpdater",
      "outputs": [],
      "stateMutability": "nonpayable",
      "type": "function"
    },
    {
      "inputs": [
        {
          "internalType": "address",
          "name": "",
          "type": "address"
        }
      ],
      "name": "shareBalance",
      "outputs": [
        {
          "internalType": "uint256",
          "name": "",
          "type": "uint256"
        }
      ],
      "stateMutability": "view",
      "type": "function"
    },
    {
      "inputs": [],
      "name": "totalAssets",
      "outputs": [
        {
          "internalType": "uint256",
          "name": "",
          "type": "uint256"
        }
      ],
      "stateMutability": "view",
      "type": "function"
    },
    {
      "inputs": [],
      "name": "totalShares",
      "outputs": [
        {
          "internalType": "uint256",
          "name": "",
          "type": "uint256"
        }
      ],
      "stateMutability": "view",
      "type": "function"
    },
    {
      "inputs": [
        {
          "internalType": "address",
          "name": "newOwner",
          "type": "address"
        }
      ],
      "name": "transferOwnership",
      "outputs": [],
      "stateMutability": "nonpayable",
      "type": "function"
    },
    {
      "inputs": [
        {
          "internalType": "uint256",
          "name": "sharesBurned",
          "type": "uint256"
        }
      ],
      "name": "withdraw",
      "outputs": [
        {
          "internalType": "uint256",
          "name": "assetsReturned",
          "type": "uint256"
        }
      ],
      "stateMutability": "nonpayable",
      "type": "function"
    }
  ],
  "bytecode": "0x60a060405234801561000f575f80fd5b5060405161107e38038061107e83398101604081905261002e91610179565b6001600160a01b0382166100555760405163b4fa3fb360e01b815260040160405180910390fd5b5f80546001600160a01b031916331790556001600160a01b0381161561007b578061007d565b335b600180546001600160a01b0319166001600160a01b039283161790558216608052600480546001600160801b0319166fffffffffffffffff00000000000000011790556040805160608101825261138880825260208201525f9082018190526005805463138813886001600160601b031990911617905590513391907f8be0079c531659141344cd1fd0a4f28419497f9722a3daafe3b4186f6b6457e0908290a36001546040516001600160a01b03909116905f907f87a47a8d9a2c1e4c2cfc1a34b44ee45d7b8c2c8802a679ebd16f0843202a9810908290a350506101aa565b80516001600160a01b0381168114610174575f80fd5b919050565b5f806040838503121561018a575f80fd5b6101938361015e565b91506101a16020840161015e565b90509250929050565b608051610ea76101d75f395f81816101a201528181610328015281816105620152610a230152610ea75ff3fe608060405234801561000f575f80fd5b506004361061011c575f3560e01c806387793ba3116100a9578063b6b55f251161006e578063b6b55f25146102bd578063c753b505146102d0578063e229cd76146102e3578063e86663fc146102eb578063f2fde38b146102fe575f80fd5b806387793ba31461021057806388a17bde1461022f5780638da5cb5b14610285578063ae31bf0f14610297578063b085325d146102aa575f80fd5b806336109fbe116100ef57806336109fbe1461019557806338d52e0f1461019d5780633a98ef39146101dc5780634b3c860e146101e55780637a6289c314610201575f80fd5b806301e1d114146101205780631e93de501461013b5780632e1a7d4d146101505780633426cdbb14610163575b5f80fd5b610128610311565b6040519081526020015b60405180910390f35b61014e610149366004610c95565b61039e565b005b61012861015e366004610cc6565b61047f565b60045461017d90600160401b90046001600160401b031681565b6040516001600160401b039091168152602001610132565b61017d603c81565b6101c47f000000000000000000000000000000000000000000000000000000000000000081565b6040516001600160a01b039091168152602001610132565b61012860025481565b6101ee6107d081565b60405161ffff9091168152602001610132565b6101286710a741a46278000081565b61012861021e366004610cdd565b60036020525f908152604090205481565b60055461025b9061ffff808216916201000081049091169064010000000090046001600160401b031683565b6040805161ffff94851681529390921660208401526001600160401b031690820152606001610132565b5f546101c4906001600160a01b031681565b61014e6102a5366004610d0a565b610637565b6001546101c4906001600160a01b031681565b6101286102cb366004610cc6565b61097c565b60045461017d906001600160401b031681565b6101ee603281565b61014e6102f9366004610cdd565b610b26565b61014e61030c366004610cdd565b610bd1565b6040516370a0823160e01b81523060048201525f907f00000000000000000000000000000000000000000000000000000000000000006001600160a01b0316906370a0823190602401602060405180830381865afa158015610375573d5f803e3d5ffd5b505050506040513d601f19601f820116820180604052508101906103999190610d65565b905090565b5f546001600160a01b031633146103c7576040516282b42960e81b815260040160405180910390fd5b6001600160401b03821615806103ee5750806001600160401b0316826001600160401b0316115b1561040c5760405163b4fa3fb360e01b815260040160405180910390fd5b600480546001600160401b038481166fffffffffffffffffffffffffffffffff199092168217600160401b918516918202179092556040805191825260208201929092527f8cb384f450d4e546cbf41d191446cbe1ad8fb7273d45d9cdd5fab18a7c095754910160405180910390a15050565b5f815f036104a05760405163b4fa3fb360e01b815260040160405180910390fd5b335f90815260036020526040902054808311156104d057604051633999656760e01b815260040160405180910390fd5b6002546104db610311565b6104e59085610d90565b6104ef9190610dad565b9150815f036105115760405163b4fa3fb360e01b815260040160405180910390fd5b61051b8382610dcc565b335f908152600360205260408120919091556002805485929061053f908490610dcc565b909155505060405163a9059cbb60e01b8152336004820152602481018390525f907f00000000000000000000000000000000000000000000000000000000000000006001600160a01b03169063a9059cbb906044016020604051808303815f875af11580156105b0573d5f803e3d5ffd5b505050506040513d601f19601f820116820180604052508101906105d49190610ddf565b9050806105f45760405163b4fa3fb360e01b815260040160405180910390fd5b604080518581526020810185905233917f92ccf450a286a957af52509bc1c9939d1a6a481783e142e41e2499f0bb66ebc691015b60405180910390a25050919050565b6001546001600160a01b03163314610661576040516282b42960e81b815260040160405180910390fd5b6004546001600160401b03908116908516108061069357506004546001600160401b03600160401b9091048116908516115b156106c157604051634d1e30ed60e01b81526001600160401b03851660048201526024015b60405180910390fd5b426001600160401b0316816001600160401b031611806106f35750603c6106e88242610dfe565b6001600160401b0316115b15610724576040516388ea8c1960e01b81526001600160401b038083166004830152421660248201526044016106b8565b603261ffff8416111561075757604051633b5d56ed60e11b815261ffff84166004820152603260248201526044016106b8565b6710a741a46278000082101561079157604051637e7222b760e01b8152600481018390526710a741a46278000060248201526044016106b8565b5f808612156107a8576107a386610e1d565b6107aa565b855b90506107d08111156107da576040516370dcdabb60e11b8152600481018290526107d060248201526044016106b8565b6005545f906107ee90889061ffff16610e37565b90505f8112806107ff575061271081135b1561081d5760405163b4fa3fb360e01b815260040160405180910390fd5b60055461ffff8082169162010000900481169083905f90610842908316612710610dcc565b905060405180606001604052808361ffff1681526020018261ffff1681526020018b6001600160401b031681525060055f820151815f015f6101000a81548161ffff021916908361ffff1602179055506020820151815f0160026101000a81548161ffff021916908361ffff1602179055506040820151815f0160046101000a8154816001600160401b0302191690836001600160401b031602179055509050507f97b203dddda88c795872abf552f68d3a1f2862d72c43b69c2c5e89d25229bcbb848484848e8e8e8e60405161096798979695949392919061ffff98891681529688166020880152948716604087015292861660608601526001600160401b03918216608086015290941660a084015260c083015290911660e08201526101000190565b60405180910390a15050505050505050505050565b5f815f0361099d5760405163b4fa3fb360e01b815260040160405180910390fd5b5f6109a6610311565b90506002545f14806109b6575080155b156109c3578291506109df565b80600254846109d29190610d90565b6109dc9190610dad565b91505b815f036109ff5760405163b4fa3fb360e01b815260040160405180910390fd5b6040516323b872dd60e01b8152336004820152306024820152604481018490525f907f00000000000000000000000000000000000000000000000000000000000000006001600160a01b0316906323b872dd906064016020604051808303815f875af1158015610a71573d5f803e3d5ffd5b505050506040513d601f19601f82011682018060405250810190610a959190610ddf565b905080610ab55760405163b4fa3fb360e01b815260040160405180910390fd5b8260025f828254610ac69190610e5e565b9091555050335f9081526003602052604081208054859290610ae9908490610e5e565b9091555050604080518581526020810185905233917f73a19dd210f1a7f902193214c0ee91dd35ee5b4d920cba8d519eca65a7b488ca9101610628565b5f546001600160a01b03163314610b4f576040516282b42960e81b815260040160405180910390fd5b6001600160a01b038116610b765760405163b4fa3fb360e01b815260040160405180910390fd5b6001546040516001600160a01b038084169216907f87a47a8d9a2c1e4c2cfc1a34b44ee45d7b8c2c8802a679ebd16f0843202a9810905f90a3600180546001600160a01b0319166001600160a01b0392909216919091179055565b5f546001600160a01b03163314610bfa576040516282b42960e81b815260040160405180910390fd5b6001600160a01b038116610c215760405163b4fa3fb360e01b815260040160405180910390fd5b5f80546040516001600160a01b03808516939216917f8be0079c531659141344cd1fd0a4f28419497f9722a3daafe3b4186f6b6457e091a35f80546001600160a01b0319166001600160a01b0392909216919091179055565b80356001600160401b0381168114610c90575f80fd5b919050565b5f8060408385031215610ca6575f80fd5b610caf83610c7a565b9150610cbd60208401610c7a565b90509250929050565b5f60208284031215610cd6575f80fd5b5035919050565b5f60208284031215610ced575f80fd5b81356001600160a01b0381168114610d03575f80fd5b9392505050565b5f805f805f60a08688031215610d1e575f80fd5b85359450610d2e60208701610c7a565b9350604086013561ffff81168114610d44575f80fd5b925060608601359150610d5960808701610c7a565b90509295509295909350565b5f60208284031215610d75575f80fd5b5051919050565b634e487b7160e01b5f52601160045260245ffd5b8082028115828204841417610da757610da7610d7c565b92915050565b5f82610dc757634e487b7160e01b5f52601260045260245ffd5b500490565b81810381811115610da757610da7610d7c565b5f60208284031215610def575f80fd5b81518015158114610d03575f80fd5b6001600160401b038281168282160390811115610da757610da7610d7c565b5f600160ff1b8201610e3157610e31610d7c565b505f0390565b8082018281125f831280158216821582161715610e5657610e56610d7c565b505092915050565b80820180821115610da757610da7610d7c56fea2646970667358221220708327f55f762ebd29fcc3cfba17d2e5a32b7a428458b0269f5239090fc47ce464736f6c634300081a0033",
  "linkReferences": {},
  "deployedLinkReferences": {}
}