{
  "_format": "hh-sol-artifact-1",
  "contractName": "CreditScorePassport",
  "sourceName": "contracts/CreditScorePassport.sol",
  "abi": [
    {
      "inputs": [
        {
          "internalType": "address",
          "name": "initialOwner",
          "type": "address"
        }
      ],
      "stateMutability": "nonpayable",
      "type": "constructor"
    },
    {
      "inputs": [],
      "name": "InvalidInput",
      "type": "error"
    },
    {
      "inputs": [],
      "name": "Unauthorized",
      "type": "error"
    },
    {
      "anonymous": false,
      "inputs": [
        {
          "indexed": true,
          "internalType": "address",
          "name": "previousOwner",
          "type": "address"
        },
        {
          "indexed": true,
          "internalType": "address",
          "name": "newOwner",
          "type": "address"
        }
      ],
      "name": "OwnershipTransferred",
      "type": "event"
    },
    {
      "anonymous": false,
      "inputs": [
        {
          "indexed": true,
          "internalType": "address",
          "name": "user",
          "type": "address"
        },
        {
          "indexed": true,
          "internalType": "uint256",
          "name": "tokenId",
          "type": "uint256"
        },
        {
          "indexed": false,
          "internalType": "uint16",
          "name": "score",
          "type": "uint16"
        }
      ],
      "name": "PassportMinted",
      "type": "event"
    },
    {
      "anonymous": false,
      "inputs": [
        {
          "indexed": true,
          "internalType": "uint256",
          "name": "tokenId",
          "type": "uint256"
        },
        {
          "indexed": false,
          "internalType": "uint16",
          "name": "previousScore",
          "type": "uint16"
        },
        {
          "indexed": false,
          "internalType": "uint16",
          "name": "newScore",
          "type": "uint16"
        },
        {
          "indexed": false,
          "internalType": "uint64",
          "name": "updatedAt",
          "type": "uint64"
        }
      ],
      "name": "ScoreUpdated",
      "type": "event"
    },
    {
      "inputs": [
        {
          "internalType": "address",
          "name": "user",
          "type": "address"
        },
        {
          "internalType": "uint16",
          "name": "initialScore",
          "type": "uint16"
        }
      ],
      "name": "mintPassport",
      "outputs": [
        {
          "internalType": "uint256",
          "name": "tokenId",
          "type": "uint256"
        }
      ],
      "stateMutability": "nonpayable",
      "type": "function"
    },
    {
      "inputs": [],
      "name": "nextTokenId",
      "outputs": [
        {
          "internalType": "uint256",
          "name": "",
          "type": "uint256"
        }
      ],
      "stateMutability": "view",
      "type": "function"
    },
    {
      "inputs": [],
      "name": "owner",
      "outputs": [
        {
          "internalType": "address",
          "name": "",
          "type": "address"
        }
      ],
      "stateMutability": "view",
      "type": "function"
    },
    {
      "inputs": [
        {
          "internalType": "uint256",
          "name": "",
          "type": "uint256"
        }
      ],
      "name": "ownerOf",
      "outputs": [
        {
          "internalType": "address",
          "name": "",
          "type": "address"
        }
      ],
      "stateMutability": "view",
      "type": "function"
    },
    {
      "inputs": [
        {
          "internalType": "uint256",
          "name": "",
          "type": "uint256"
        }
      ],
      "name": "scoreOf",
      "outputs": [
        {
          "internalType": "uint16",
          "name": "score",
          "type": "uint16"
        },
        {
          "internalType": "uint64",
          "name": "updatedAt",
          "type": "uint64"
        },
        {
          "internalType": "bool",
          "name": "exists",
          "type": "bool"
        }
      ],
      "stateMutability": "view",
      "type": "function"
    },
    {
      "inputs": [
        {
          "internalType": "address",
          "name": "",
          "type": "address"
        }
      ],
      "name": "tokenOf",
      "outputs": [
        {
          "internalType": "uint256",
          "name": "",
          "type": "uint256"
        }
      ],
      "stateMutability": "view",
      "type": "function"
    },
    {
      "inputs": [
        {
          "internalType": "address",
          "name": "newOwner",
          "type": "address"
        }
      ],
      "name": "transferOwnership",
      "outputs": [],
      "stateMutability": "nonpayable",
      "type": "function"
    },
    {
      "inputs": [
        {
          "internalType": "uint256",
          "name": "tokenId",
          "type": "uint256"
        },
        {
          "internalType": "uint16",
          "name": "newScore",
          "type": "uint16"
        }
      ],
      "name": "updateScore",
      "outputs": [],
      "stateMutability": "nonpayable",
      "type": "function"
    }
  ],
  "bytecode": "0x6080604052348015600e575f80fd5b506040516106b23803806106b2833981016040819052602b91608b565b6001600160a01b03811615603e57806040565b335b5f80546001600160a01b0319166001600160a01b039290921691821781556040517f8be0079c531659141344cd1fd0a4f28419497f9722a3daafe3b4186f6b6457e0908290a35060b6565b5f60208284031215609a575f80fd5b81516001600160a01b038116811460af575f80fd5b9392505050565b6105ef806100c35f395ff3fe608060405234801561000f575f80fd5b5060043610610085575f3560e01c806375794a3c1161005857806375794a3c1461017b5780638da5cb5b1461018457806397ac186614610196578063f2fde38b146101a9575f80fd5b80633badcc961461008957806342ec38e21461009e5780636352211e146100d0578063752821e914610110575b5f80fd5b61009c6100973660046104f6565b6101bc565b005b6100bd6100ac366004610536565b60036020525f908152604090205481565b6040519081526020015b60405180910390f35b6100f86100de366004610556565b60026020525f90815260409020546001600160a01b031681565b6040516001600160a01b0390911681526020016100c7565b61015061011e366004610556565b60046020525f908152604090205461ffff81169062010000810467ffffffffffffffff1690600160501b900460ff1683565b6040805161ffff909416845267ffffffffffffffff90921660208401521515908201526060016100c7565b6100bd60015481565b5f546100f8906001600160a01b031681565b6100bd6101a436600461056d565b6102b5565b61009c6101b7366004610536565b610437565b5f546001600160a01b031633146101e5576040516282b42960e81b815260040160405180910390fd5b6103e88161ffff16118061020e57505f82815260046020526040902054600160501b900460ff16155b1561022c5760405163b4fa3fb360e01b815260040160405180910390fd5b5f82815260046020908152604091829020805467ffffffffffffffff421662010000810269ffffffffffffffffffff19831661ffff888116918217929092179094558551921680835293820192909252928301529083907ff90acede0172c2724fcbb1780bb5e60c8d68007f34b87ba3c8d683dc1cc368909060600160405180910390a2505050565b5f80546001600160a01b031633146102df576040516282b42960e81b815260040160405180910390fd5b6001600160a01b038316158061030b57506001600160a01b0383165f9081526003602052604090205415155b8061031b57506103e88261ffff16115b156103395760405163b4fa3fb360e01b815260040160405180910390fd5b60015f815461034790610595565b91829055505f81815260026020908152604080832080546001600160a01b0389166001600160a01b0319909116811790915580845260038352818420859055815160608101835261ffff88811680835267ffffffffffffffff42811684880190815260018588019081528a8a52600489529887902094518554915199511515600160501b0260ff60501b199a909316620100000269ffffffffffffffffffff19909216941693909317929092179690961617905590519283529293508392917f48389b356a1738367caa99a18cbb441ce2740eb3f7ce8b6c0848eb3ea425bbf9910160405180910390a392915050565b5f546001600160a01b03163314610460576040516282b42960e81b815260040160405180910390fd5b6001600160a01b0381166104875760405163b4fa3fb360e01b815260040160405180910390fd5b5f80546040516001600160a01b03808516939216917f8be0079c531659141344cd1fd0a4f28419497f9722a3daafe3b4186f6b6457e091a35f80546001600160a01b0319166001600160a01b0392909216919091179055565b803561ffff811681146104f1575f80fd5b919050565b5f8060408385031215610507575f80fd5b82359150610517602084016104e0565b90509250929050565b80356001600160a01b03811681146104f1575f80fd5b5f60208284031215610546575f80fd5b61054f82610520565b9392505050565b5f60208284031215610566575f80fd5b5035919050565b5f806040838503121561057e575f80fd5b61058783610520565b9150610517602084016104e0565b5f600182016105b257634e487b7160e01b5f52601160045260245ffd5b506001019056fea264697066735822122038c1787d1aa066089a0579079b984b29c5882e2c9ed5b549d3977cad87b6ad0364736f6c634300081a0033",
  "linkReferences": {},
  "deployedLinkReferences": {}
}