{
  "_format": "hh-sol-artifact-1",
  "contractName": "PositionSafetyGateway",
  "sourceName": "contracts/PositionSafetyGateway.sol",
  "abi": [
    {
      "inputs": [
        {
          "internalType": "address",
          "name": "verifierAddress",
          "type": "address"
        }
      ],
      "stateMutability": "nonpayable",
      "type": "constructor"
    },
    {
      "inputs": [],
      "name": "InvalidInput",
      "type": "error"
    },
    {
      "inputs": [],
      "name": "ProofRejected",
      "type": "error"
    },
    {
      "anonymous": false,
      "inputs": [
        {
          "indexed": true,
          "internalType": "address",
          "name": "user",
          "type": "address"
        },
        {
          "indexed": true,
          "internalType": "bytes32",
          "name": "signalHash",
          "type": "bytes32"
        },
        {
          "indexed": false,
          "internalType": "bool",
          "name": "accepted",
          "type": "bool"
        }
      ],
      "name": "SafetyProofVerified",
      "type": "event"
    },
    {
      "inputs": [],
      "name": "verifier",
      "outputs": [
        {
          "internalType": "address",
          "name": "",
          "type": "address"
        }
      ],
      "stateMutability": "view",
      "type": "function"
    },
    {
      "inputs": [
        {
          "internalType": "bytes32",
          "name": "signalHash",
          "type": "bytes32"
        },
        {
          "internalType": "bytes",
          "name": "proof",
          "type": "bytes"
        }
      ],
      "name": "verifyPositionSafety",
      "outputs": [
        {
          "internalType": "bool",
          "name": "",
          "type": "bool"
        }
      ],
      "stateMutability": "nonpayable",
      "type": "function"
    }
  ],
  "bytecode": "0x60a034608057601f6102f738819003918201601f19168301916001600160401b03831184841017608457808492602094604052833981010312608057516001600160a01b0381168082036080571560715760805260405161025e9081610099823960805181818160d701526101f90152f35b63b4fa3fb360e01b5f5260045ffd5b5f80fd5b634e487b7160e01b5f52604160045260245ffdfe6080806040526004361015610012575f80fd5b5f3560e01c9081632b7ac3f3146101e7575063e25b19f114610032575f80fd5b346101a65760403660031901126101a65760043560243567ffffffffffffffff81116101a657366023820112156101a65780600401359067ffffffffffffffff82116101a65736602483830101116101a657821580156101df575b6101d057602460646020928460405195869485936312c572c160e11b855289600486015260408286015282604486015201848401375f828201840152601f01601f191681010301817f00000000000000000000000000000000000000000000000000000000000000006001600160a01b03165afa9081156101c5575f9161015c575b501561014d57604051600181527f5424009d3079a6ea77c45cc7f78b58ac0227b1ae8f8731eb6d477be2a1da542360203392a3602060405160018152f35b63c3b0d8cd60e01b5f5260045ffd5b905060203d6020116101be575b601f8101601f1916820167ffffffffffffffff8111838210176101aa576020918391604052810103126101a6575180151581036101a6575f61010f565b5f80fd5b634e487b7160e01b5f52604160045260245ffd5b503d610169565b6040513d5f823e3d90fd5b63b4fa3fb360e01b5f5260045ffd5b50811561008d565b346101a6575f3660031901126101a6577f00000000000000000000000000000000000000000000000000000000000000006001600160a01b03168152602090f3fea26469706673582212205d2a03cc3d9c585b411ed69dc20acc3f17e1f9757f88c95411bc11ba51599b4664736f6c634300081a0033",
  "linkReferences": {},
  "deployedLinkReferences": {}
}